{"_format":"hh-sol-artifact-1","contractName":"AaveWithdraw","sourceName":"contracts/modules/actions/AaveWithdraw.sol","abi":[{"anonymous":false,"inputs":[{"indexed":true,"internalType":"address","name":"userAddr","type":"address"},{"indexed":true,"internalType":"address","name":"assetAddr","type":"address"},{"indexed":false,"internalType":"uint256","name":"position","type":"uint256"}],"name":"AaveWithdrawExecuted","type":"event"},{"inputs":[],"name":"EMPTY_BYTES32","outputs":[{"internalType":"bytes32","name":"","type":"bytes32"}],"stateMutability":"view","type":"function"},{"inputs":[],"name":"EMPTY_STATE","outputs":[{"internalType":"bytes","name":"","type":"bytes"}],"stateMutability":"view","type":"function"},{"inputs":[{"internalType":"bytes","name":"data","type":"bytes"}],"name":"execute","outputs":[],"stateMutability":"nonpayable","type":"function"},{"inputs":[{"internalType":"bytes32","name":"key","type":"bytes32"}],"name":"getState","outputs":[{"internalType":"bytes","name":"state","type":"bytes"}],"stateMutability":"view","type":"function"},{"inputs":[{"internalType":"bytes","name":"","type":"bytes"}],"name":"init","outputs":[],"stateMutability":"nonpayable","type":"function"},{"inputs":[],"name":"payFee","outputs":[],"stateMutability":"nonpayable","type":"function"}],"bytecode":"0x608060405234801561001057600080fd5b50610a00806100206000396000f3fe608060405234801561001057600080fd5b50600436106100725760003560e01c80633d14319d116100505780633d14319d146100b55780634ddf47d4146100cb5780638db71efb146100dd57600080fd5b806309648a9d1461007757806309c5eabe146100a057806329610252146100b3575b600080fd5b61008a6100853660046106de565b610119565b6040516100979190610771565b60405180910390f35b6100b36100ae366004610784565b6101d9565b005b6100bd600081565b604051908152602001610097565b6100b36100d9366004610784565b5050565b61008a6040518060400160405280600b81526020017f454d5054595f535441544500000000000000000000000000000000000000000081525081565b606060006101348330600091825260601b6020526034902090565b6040517f09648a9d0000000000000000000000000000000000000000000000000000000081526004810182905290915033906309648a9d90602401600060405180830381865afa15801561018c573d6000803e3d6000fd5b505050506040513d6000823e601f3d9081017fffffffffffffffffffffffffffffffffffffffffffffffffffffffffffffffe01682016040526101d29190810190610825565b9392505050565b60008060006101e88585610610565b92509250925060008273ffffffffffffffffffffffffffffffffffffffff16637535d2466040518163ffffffff1660e01b8152600401602060405180830381865afa15801561023b573d6000803e3d6000fd5b505050506040513d601f19601f8201168201806040525081019061025f9190610915565b6040517fdd62ed3e00000000000000000000000000000000000000000000000000000000815273ffffffffffffffffffffffffffffffffffffffff868116600483015233602483015291925060009185169063dd62ed3e90604401602060405180830381865afa1580156102d7573d6000803e3d6000fd5b505050506040513d601f19601f820116820180604052508101906102fb9190610932565b6040517f70a0823100000000000000000000000000000000000000000000000000000000815273ffffffffffffffffffffffffffffffffffffffff87811660048301529192506000918616906370a0823190602401602060405180830381865afa15801561036d573d6000803e3d6000fd5b505050506040513d601f19601f820116820180604052508101906103919190610932565b905060008573ffffffffffffffffffffffffffffffffffffffff1663b16a19de6040518163ffffffff1660e01b8152600401602060405180830381865afa1580156103e0573d6000803e3d6000fd5b505050506040513d601f19601f820116820180604052508101906104049190610915565b905060008284106104155782610417565b835b90508581106104265785610428565b805b60405173ffffffffffffffffffffffffffffffffffffffff8a16602482015233604482015260648101829052909150600090608401604080517fffffffffffffffffffffffffffffffffffffffffffffffffffffffffffffffe08184030181529190526020810180517bffffffffffffffffffffffffffffffffffffffffffffffffffffffff167f23b872dd0000000000000000000000000000000000000000000000000000000017905290506104e18860008361062e565b5060405173ffffffffffffffffffffffffffffffffffffffff8085166024830152604482018490528a166064820152600090608401604080517fffffffffffffffffffffffffffffffffffffffffffffffffffffffffffffffe08184030181529190526020810180517bffffffffffffffffffffffffffffffffffffffffffffffffffffffff167f69328dec00000000000000000000000000000000000000000000000000000000179052905061059a8760008361062e565b508373ffffffffffffffffffffffffffffffffffffffff168a73ffffffffffffffffffffffffffffffffffffffff167f0bc5caef5a4698763d4432bfa1476f93d9e2db5e391abf21afb23761745d84f7856040516105fa91815260200190565b60405180910390a3505050505050505050505050565b600080806106208486018661094b565b919790965090945092505050565b6040517f20d2a20f00000000000000000000000000000000000000000000000000000000815260609033906320d2a20f906106719087908790879060040161098c565b6000604051808303816000875af1158015610690573d6000803e3d6000fd5b505050506040513d6000823e601f3d9081017fffffffffffffffffffffffffffffffffffffffffffffffffffffffffffffffe01682016040526106d69190810190610825565b949350505050565b6000602082840312156106f057600080fd5b5035919050565b60005b838110156107125781810151838201526020016106fa565b83811115610721576000848401525b50505050565b6000815180845261073f8160208601602086016106f7565b601f017fffffffffffffffffffffffffffffffffffffffffffffffffffffffffffffffe0169290920160200192915050565b6020815260006101d26020830184610727565b6000806020838503121561079757600080fd5b823567ffffffffffffffff808211156107af57600080fd5b818501915085601f8301126107c357600080fd5b8135818111156107d257600080fd5b8660208285010111156107e457600080fd5b60209290920196919550909350505050565b7f4e487b7100000000000000000000000000000000000000000000000000000000600052604160045260246000fd5b60006020828403121561083757600080fd5b815167ffffffffffffffff8082111561084f57600080fd5b818401915084601f83011261086357600080fd5b815181811115610875576108756107f6565b604051601f82017fffffffffffffffffffffffffffffffffffffffffffffffffffffffffffffffe0908116603f011681019083821181831017156108bb576108bb6107f6565b816040528281528760208487010111156108d457600080fd5b6108e58360208301602088016106f7565b979650505050505050565b73ffffffffffffffffffffffffffffffffffffffff8116811461091257600080fd5b50565b60006020828403121561092757600080fd5b81516101d2816108f0565b60006020828403121561094457600080fd5b5051919050565b60008060006060848603121561096057600080fd5b833561096b816108f0565b9250602084013561097b816108f0565b929592945050506040919091013590565b73ffffffffffffffffffffffffffffffffffffffff841681528260208201526060604082015260006109c16060830184610727565b9594505050505056fea2646970667358221220f9b1d6ad49422eb94a1e22a664c68d134613df040cd551d6a00c38dd71b3d20c64736f6c634300080c0033","linkReferences":{},"deployedLinkReferences":{},"fileHash":"54972d4dcf68039600cd05eed48e50bcad2a6c7bbe119b4060aa409ee0d39a5b"}