{"_format":"hh-sol-artifact-1","contractName":"ApproveAndSwap","sourceName":"contracts/modules/actions/ApproveAndSwap.sol","abi":[{"inputs":[{"internalType":"address","name":"_wethAddr","type":"address"}],"stateMutability":"nonpayable","type":"constructor"},{"inputs":[],"name":"EMPTY_BYTES32","outputs":[{"internalType":"bytes32","name":"","type":"bytes32"}],"stateMutability":"view","type":"function"},{"inputs":[],"name":"EMPTY_STATE","outputs":[{"internalType":"bytes","name":"","type":"bytes"}],"stateMutability":"view","type":"function"},{"inputs":[{"internalType":"bytes","name":"","type":"bytes"}],"name":"execute","outputs":[],"stateMutability":"nonpayable","type":"function"},{"inputs":[{"internalType":"address","name":"tokenAddr","type":"address"},{"internalType":"address","name":"routerAddr","type":"address"},{"internalType":"uint256","name":"amount","type":"uint256"},{"internalType":"bytes","name":"routerCallData","type":"bytes"}],"name":"executeSwapERC20","outputs":[{"internalType":"bytes","name":"","type":"bytes"}],"stateMutability":"nonpayable","type":"function"},{"inputs":[{"internalType":"address","name":"routerAddr","type":"address"},{"internalType":"uint256","name":"amount","type":"uint256"},{"internalType":"bytes","name":"routerCallData","type":"bytes"}],"name":"executeSwapETH","outputs":[{"internalType":"bytes","name":"","type":"bytes"}],"stateMutability":"nonpayable","type":"function"},{"inputs":[{"internalType":"bytes32","name":"key","type":"bytes32"}],"name":"getState","outputs":[{"internalType":"bytes","name":"state","type":"bytes"}],"stateMutability":"view","type":"function"},{"inputs":[],"name":"getWeth","outputs":[{"internalType":"contract IWETH9","name":"","type":"address"}],"stateMutability":"view","type":"function"},{"inputs":[{"internalType":"bytes","name":"","type":"bytes"}],"name":"init","outputs":[],"stateMutability":"nonpayable","type":"function"},{"inputs":[],"name":"payFee","outputs":[],"stateMutability":"nonpayable","type":"function"}],"bytecode":"0x608060405234801561001057600080fd5b50604051610a87380380610a8783398101604081905261002f91610054565b600080546001600160a01b0319166001600160a01b0392909216919091179055610084565b60006020828403121561006657600080fd5b81516001600160a01b038116811461007d57600080fd5b9392505050565b6109f4806100936000396000f3fe608060405234801561001057600080fd5b50600436106100a35760003560e01c80633d14319d116100765780634ddf47d41161005b5780634ddf47d4146100d15780636701b87d146101365780638db71efb1461014957600080fd5b80633d14319d1461010d5780634242f0271461012357600080fd5b806309648a9d146100a857806309c5eabe146100d1578063107c279f146100e557806329610252146100e3575b600080fd5b6100bb6100b63660046105bd565b610185565b6040516100c89190610650565b60405180910390f35b6100e36100df366004610663565b5050565b005b60005460405173ffffffffffffffffffffffffffffffffffffffff90911681526020016100c8565b610115600081565b6040519081526020016100c8565b6100bb610131366004610818565b610245565b6100bb61014436600461086f565b6103d9565b6100bb6040518060400160405280600b81526020017f454d5054595f535441544500000000000000000000000000000000000000000081525081565b606060006101a08330600091825260601b6020526034902090565b6040517f09648a9d0000000000000000000000000000000000000000000000000000000081526004810182905290915033906309648a9d90602401600060405180830381865afa1580156101f8573d6000803e3d6000fd5b505050506040513d6000823e601f3d9081017fffffffffffffffffffffffffffffffffffffffffffffffffffffffffffffffe016820160405261023e91908101906108d7565b9392505050565b6000546040805160048152602481019091526020810180517bffffffffffffffffffffffffffffffffffffffffffffffffffffffff167fd0e30db00000000000000000000000000000000000000000000000000000000017905260609173ffffffffffffffffffffffffffffffffffffffff16906102c48286836103ef565b506000546040517f70a08231000000000000000000000000000000000000000000000000000000008152336004820152869173ffffffffffffffffffffffffffffffffffffffff16906370a0823190602401602060405180830381865afa158015610333573d6000803e3d6000fd5b505050506040513d601f19601f82011682018060405250810190610357919061094e565b10156103c4576040517f08c379a000000000000000000000000000000000000000000000000000000000815260206004820152601a60248201527f42616c616e6365206973206e6f74206869676820656e6f75676800000000000060448201526064015b60405180910390fd5b6103d082878787610497565b50509392505050565b60606103e785858585610497565b949350505050565b6040517f20d2a20f00000000000000000000000000000000000000000000000000000000815260609033906320d2a20f9061043290879087908790600401610967565b6000604051808303816000875af1158015610451573d6000803e3d6000fd5b505050506040513d6000823e601f3d9081017fffffffffffffffffffffffffffffffffffffffffffffffffffffffffffffffe01682016040526103e791908101906108d7565b6040805173ffffffffffffffffffffffffffffffffffffffff8516602482015260448082018590528251808303909101815260649091019091526020810180517bffffffffffffffffffffffffffffffffffffffffffffffffffffffff167f095ea7b30000000000000000000000000000000000000000000000000000000017905260006105268682846103ef565b905060008180602001905181019061053e919061099c565b9050806105a7576040517f08c379a000000000000000000000000000000000000000000000000000000000815260206004820152600e60248201527f417070726f7665206661696c656400000000000000000000000000000000000060448201526064016103bb565b6105b3866000866103ef565b5050505050505050565b6000602082840312156105cf57600080fd5b5035919050565b60005b838110156105f15781810151838201526020016105d9565b83811115610600576000848401525b50505050565b6000815180845261061e8160208601602086016105d6565b601f017fffffffffffffffffffffffffffffffffffffffffffffffffffffffffffffffe0169290920160200192915050565b60208152600061023e6020830184610606565b6000806020838503121561067657600080fd5b823567ffffffffffffffff8082111561068e57600080fd5b818501915085601f8301126106a257600080fd5b8135818111156106b157600080fd5b8660208285010111156106c357600080fd5b60209290920196919550909350505050565b803573ffffffffffffffffffffffffffffffffffffffff811681146106f957600080fd5b919050565b7f4e487b7100000000000000000000000000000000000000000000000000000000600052604160045260246000fd5b604051601f82017fffffffffffffffffffffffffffffffffffffffffffffffffffffffffffffffe016810167ffffffffffffffff81118282101715610774576107746106fe565b604052919050565b600067ffffffffffffffff821115610796576107966106fe565b50601f017fffffffffffffffffffffffffffffffffffffffffffffffffffffffffffffffe01660200190565b600082601f8301126107d357600080fd5b81356107e66107e18261077c565b61072d565b8181528460208386010111156107fb57600080fd5b816020850160208301376000918101602001919091529392505050565b60008060006060848603121561082d57600080fd5b610836846106d5565b925060208401359150604084013567ffffffffffffffff81111561085957600080fd5b610865868287016107c2565b9150509250925092565b6000806000806080858703121561088557600080fd5b61088e856106d5565b935061089c602086016106d5565b925060408501359150606085013567ffffffffffffffff8111156108bf57600080fd5b6108cb878288016107c2565b91505092959194509250565b6000602082840312156108e957600080fd5b815167ffffffffffffffff81111561090057600080fd5b8201601f8101841361091157600080fd5b805161091f6107e18261077c565b81815285602083850101111561093457600080fd5b6109458260208301602086016105d6565b95945050505050565b60006020828403121561096057600080fd5b5051919050565b73ffffffffffffffffffffffffffffffffffffffff841681528260208201526060604082015260006109456060830184610606565b6000602082840312156109ae57600080fd5b8151801515811461023e57600080fdfea2646970667358221220cd8f118671019b654e6a139d74b9a2b87199e795ef8251af49ca96419073011964736f6c634300080c0033","linkReferences":{},"deployedLinkReferences":{},"fileHash":"437c65271d489bb2a38cccd04ff013aea15315934542451bc63f4e97e77a500c"}