{"_format":"hh-sol-artifact-1","contractName":"FunWalletFactory","sourceName":"contracts/deployer/FunWalletFactory.sol","abi":[{"inputs":[{"internalType":"address","name":"_owner","type":"address"},{"internalType":"address","name":"_feeOracle","type":"address"},{"internalType":"contract WalletInit","name":"_walletInit","type":"address"}],"stateMutability":"nonpayable","type":"constructor"},{"anonymous":false,"inputs":[{"indexed":true,"internalType":"address","name":"previousOwner","type":"address"},{"indexed":true,"internalType":"address","name":"newOwner","type":"address"}],"name":"OwnershipTransferred","type":"event"},{"inputs":[{"internalType":"bytes","name":"initializerCallData","type":"bytes"},{"internalType":"address","name":"implementation","type":"address"},{"internalType":"bytes","name":"data","type":"bytes"}],"name":"createAccount","outputs":[{"internalType":"contract FunWallet","name":"funWallet","type":"address"}],"stateMutability":"nonpayable","type":"function"},{"inputs":[],"name":"feeOracle","outputs":[{"internalType":"address","name":"","type":"address"}],"stateMutability":"view","type":"function"},{"inputs":[],"name":"funWalletImpAddress","outputs":[{"internalType":"address","name":"","type":"address"}],"stateMutability":"view","type":"function"},{"inputs":[{"internalType":"bytes","name":"data","type":"bytes"}],"name":"getAddress","outputs":[{"internalType":"address","name":"","type":"address"}],"stateMutability":"view","type":"function"},{"inputs":[],"name":"owner","outputs":[{"internalType":"address","name":"","type":"address"}],"stateMutability":"view","type":"function"},{"inputs":[],"name":"renounceOwnership","outputs":[],"stateMutability":"nonpayable","type":"function"},{"inputs":[{"internalType":"address","name":"_feeOracle","type":"address"}],"name":"setFeeOracle","outputs":[],"stateMutability":"nonpayable","type":"function"},{"inputs":[{"internalType":"contract WalletInit","name":"_walletInit","type":"address"}],"name":"setWalletInit","outputs":[],"stateMutability":"nonpayable","type":"function"},{"inputs":[{"internalType":"address","name":"newOwner","type":"address"}],"name":"transferOwnership","outputs":[],"stateMutability":"nonpayable","type":"function"},{"inputs":[],"name":"walletInit","outputs":[{"internalType":"contract WalletInit","name":"","type":"address"}],"stateMutability":"view","type":"function"}],"bytecode":"0x60a06040523480156200001157600080fd5b5060405162005d0a38038062005d0a833981016040819052620000349162000209565b6200003f33620000b4565b6040516200004d90620001e5565b604051809103906000f0801580156200006a573d6000803e3d6000fd5b506001600160a01b03908116608052600180546001600160a01b03199081168584161790915560028054909116918316919091179055620000ab8362000104565b5050506200025d565b600080546001600160a01b038381166001600160a01b0319831681178455604051919092169283917f8be0079c531659141344cd1fd0a4f28419497f9722a3daafe3b4186f6b6457e09190a35050565b6200010e62000187565b6001600160a01b038116620001795760405162461bcd60e51b815260206004820152602660248201527f4f776e61626c653a206e6577206f776e657220697320746865207a65726f206160448201526564647265737360d01b60648201526084015b60405180910390fd5b6200018481620000b4565b50565b6000546001600160a01b03163314620001e35760405162461bcd60e51b815260206004820181905260248201527f4f776e61626c653a2063616c6c6572206973206e6f7420746865206f776e6572604482015260640162000170565b565b61475180620015b983390190565b6001600160a01b03811681146200018457600080fd5b6000806000606084860312156200021f57600080fd5b83516200022c81620001f3565b60208501519093506200023f81620001f3565b60408501519092506200025281620001f3565b809150509250925092565b60805161132b6200028e60003960008181610166015281816103a90152818161053a01526105e0015261132b6000f3fe60806040523480156200001157600080fd5b5060043610620000cd5760003560e01c80638da5cb5b116200007f578063c47cf5de1162000062578063c47cf5de14620001be578063cd53f4b114620001d5578063f2fde38b14620001ec57600080fd5b80638da5cb5b1462000188578063a8a9896214620001a757600080fd5b8063500b19e711620000b4578063500b19e71462000135578063715018a614620001565780638bb08620146200016057600080fd5b80630ae3ad1114620000d2578063472b578f14620000eb575b600080fd5b620000e9620000e3366004620008ba565b62000203565b005b6002546200010c9073ffffffffffffffffffffffffffffffffffffffff1681565b60405173ffffffffffffffffffffffffffffffffffffffff909116815260200160405180910390f35b6001546200010c9073ffffffffffffffffffffffffffffffffffffffff1681565b620000e962000254565b6200010c7f000000000000000000000000000000000000000000000000000000000000000081565b60005473ffffffffffffffffffffffffffffffffffffffff166200010c565b620000e9620001b8366004620008ba565b6200026c565b6200010c620001cf36600462000926565b620002bd565b6200010c620001e63660046200096c565b62000452565b620000e9620001fd366004620008ba565b6200069d565b6200020d6200075e565b600280547fffffffffffffffffffffffff00000000000000000000000000000000000000001673ffffffffffffffffffffffffffffffffffffffff92909216919091179055565b6200025e6200075e565b6200026a6000620007e1565b565b620002766200075e565b600180547fffffffffffffffffffffffff00000000000000000000000000000000000000001673ffffffffffffffffffffffffffffffffffffffff92909216919091179055565b6002546040517f120c52c20000000000000000000000000000000000000000000000000000000081526000916200044b9173ffffffffffffffffffffffffffffffffffffffff9091169063120c52c2906200031f908790879060040162000a43565b602060405180830381865afa1580156200033d573d6000803e3d6000fd5b505050506040513d601f19601f8201168201806040525081019062000363919062000a61565b604051620003746020820162000889565b7fffffffffffffffffffffffffffffffffffffffffffffffffffffffffffffffe082820381018352601f9091011660408181527f000000000000000000000000000000000000000000000000000000000000000073ffffffffffffffffffffffffffffffffffffffff1660208301528082015260006060820152608001604080517fffffffffffffffffffffffffffffffffffffffffffffffffffffffffffffffe0818403018152908290526200042f929160200162000ab9565b6040516020818303038152906040528051906020012062000856565b9392505050565b6002546040517fb522c3c6000000000000000000000000000000000000000000000000000000008152600091829173ffffffffffffffffffffffffffffffffffffffff9091169063b522c3c690620004b5908a908a908990899060040162000ad2565b602060405180830381865afa158015620004d3573d6000803e3d6000fd5b505050506040513d601f19601f82011682018060405250810190620004f9919062000a61565b90506000620005098585620002bd565b905073ffffffffffffffffffffffffffffffffffffffff81163b80156200053557509150620006949050565b6000837f0000000000000000000000000000000000000000000000000000000000000000604051620005679062000889565b73ffffffffffffffffffffffffffffffffffffffff90911681526040602082018190526000908201526060018190604051809103906000f5905080158015620005b4573d6000803e3d6000fd5b50945084905073ffffffffffffffffffffffffffffffffffffffff881615620005de578762000600565b7f00000000000000000000000000000000000000000000000000000000000000005b6040517f4192d25100000000000000000000000000000000000000000000000000000000815290985073ffffffffffffffffffffffffffffffffffffffff861690634192d251906200065b908b908e908e9060040162000b08565b600060405180830381600087803b1580156200067657600080fd5b505af11580156200068b573d6000803e3d6000fd5b50505050505050505b95945050505050565b620006a76200075e565b73ffffffffffffffffffffffffffffffffffffffff811662000750576040517f08c379a000000000000000000000000000000000000000000000000000000000815260206004820152602660248201527f4f776e61626c653a206e6577206f776e657220697320746865207a65726f206160448201527f646472657373000000000000000000000000000000000000000000000000000060648201526084015b60405180910390fd5b6200075b81620007e1565b50565b60005473ffffffffffffffffffffffffffffffffffffffff1633146200026a576040517f08c379a000000000000000000000000000000000000000000000000000000000815260206004820181905260248201527f4f776e61626c653a2063616c6c6572206973206e6f7420746865206f776e6572604482015260640162000747565b6000805473ffffffffffffffffffffffffffffffffffffffff8381167fffffffffffffffffffffffff0000000000000000000000000000000000000000831681178455604051919092169283917f8be0079c531659141344cd1fd0a4f28419497f9722a3daafe3b4186f6b6457e09190a35050565b60006200044b8383306000604051836040820152846020820152828152600b8101905060ff815360559020949350505050565b6107bb8062000b3b83390190565b73ffffffffffffffffffffffffffffffffffffffff811681146200075b57600080fd5b600060208284031215620008cd57600080fd5b81356200044b8162000897565b60008083601f840112620008ed57600080fd5b50813567ffffffffffffffff8111156200090657600080fd5b6020830191508360208285010111156200091f57600080fd5b9250929050565b600080602083850312156200093a57600080fd5b823567ffffffffffffffff8111156200095257600080fd5b6200096085828601620008da565b90969095509350505050565b6000806000806000606086880312156200098557600080fd5b853567ffffffffffffffff808211156200099e57600080fd5b620009ac89838a01620008da565b909750955060208801359150620009c38262000897565b90935060408701359080821115620009da57600080fd5b50620009e988828901620008da565b969995985093965092949392505050565b8183528181602085013750600060208284010152600060207fffffffffffffffffffffffffffffffffffffffffffffffffffffffffffffffe0601f840116840101905092915050565b60208152600062000a59602083018486620009fa565b949350505050565b60006020828403121562000a7457600080fd5b5051919050565b6000815160005b8181101562000a9e576020818501810151868301520162000a82565b8181111562000aae576000828601525b509290920192915050565b600062000a5962000acb838662000a7b565b8462000a7b565b60408152600062000ae8604083018688620009fa565b828103602084015262000afd818587620009fa565b979650505050505050565b73ffffffffffffffffffffffffffffffffffffffff8416815260406020820152600062000694604083018486620009fa56fe60806040526040516107bb3803806107bb8339810160408190526100229161031e565b61002e82826000610035565b505061043b565b61003e8361006b565b60008251118061004b5750805b156100665761006483836100ab60201b6100291760201c565b505b505050565b610074816100d7565b6040516001600160a01b038216907fbc7cd75a20ee27fd9adebab32041f755214dbc6bffa90cc0225b39da2e5c2d3b90600090a250565b60606100d08383604051806060016040528060278152602001610794602791396101a9565b9392505050565b6100ea8161022260201b6100551760201c565b6101515760405162461bcd60e51b815260206004820152602d60248201527f455243313936373a206e657720696d706c656d656e746174696f6e206973206e60448201526c1bdd08184818dbdb9d1c9858dd609a1b60648201526084015b60405180910390fd5b806101887f360894a13ba1a3210667c828492db98dca3e2076cc3735a920a3ca505d382bbc60001b61023160201b6100711760201c565b80546001600160a01b0319166001600160a01b039290921691909117905550565b6060600080856001600160a01b0316856040516101c691906103ec565b600060405180830381855af49150503d8060008114610201576040519150601f19603f3d011682016040523d82523d6000602084013e610206565b606091505b50909250905061021886838387610234565b9695505050505050565b6001600160a01b03163b151590565b90565b606083156102a0578251610299576001600160a01b0385163b6102995760405162461bcd60e51b815260206004820152601d60248201527f416464726573733a2063616c6c20746f206e6f6e2d636f6e74726163740000006044820152606401610148565b50816102aa565b6102aa83836102b2565b949350505050565b8151156102c25781518083602001fd5b8060405162461bcd60e51b81526004016101489190610408565b634e487b7160e01b600052604160045260246000fd5b60005b8381101561030d5781810151838201526020016102f5565b838111156100645750506000910152565b6000806040838503121561033157600080fd5b82516001600160a01b038116811461034857600080fd5b60208401519092506001600160401b038082111561036557600080fd5b818501915085601f83011261037957600080fd5b81518181111561038b5761038b6102dc565b604051601f8201601f19908116603f011681019083821181831017156103b3576103b36102dc565b816040528281528860208487010111156103cc57600080fd5b6103dd8360208301602088016102f2565b80955050505050509250929050565b600082516103fe8184602087016102f2565b9190910192915050565b60208152600082518060208401526104278160408501602087016102f2565b601f01601f19169190910160400192915050565b61034a8061044a6000396000f3fe60806040523661001357610011610017565b005b6100115b610027610022610074565b6100b9565b565b606061004e83836040518060600160405280602781526020016102ee602791396100dd565b9392505050565b73ffffffffffffffffffffffffffffffffffffffff163b151590565b90565b60006100b47f360894a13ba1a3210667c828492db98dca3e2076cc3735a920a3ca505d382bbc5473ffffffffffffffffffffffffffffffffffffffff1690565b905090565b3660008037600080366000845af43d6000803e8080156100d8573d6000f35b3d6000fd5b60606000808573ffffffffffffffffffffffffffffffffffffffff16856040516101079190610280565b600060405180830381855af49150503d8060008114610142576040519150601f19603f3d011682016040523d82523d6000602084013e610147565b606091505b509150915061015886838387610162565b9695505050505050565b606083156101fa5782516101f35773ffffffffffffffffffffffffffffffffffffffff85163b6101f3576040517f08c379a000000000000000000000000000000000000000000000000000000000815260206004820152601d60248201527f416464726573733a2063616c6c20746f206e6f6e2d636f6e747261637400000060448201526064015b60405180910390fd5b5081610204565b610204838361020c565b949350505050565b81511561021c5781518083602001fd5b806040517f08c379a00000000000000000000000000000000000000000000000000000000081526004016101ea919061029c565b60005b8381101561026b578181015183820152602001610253565b8381111561027a576000848401525b50505050565b60008251610292818460208701610250565b9190910192915050565b60208152600082518060208401526102bb816040850160208701610250565b601f017fffffffffffffffffffffffffffffffffffffffffffffffffffffffffffffffe016919091016040019291505056fe416464726573733a206c6f772d6c6576656c2064656c65676174652063616c6c206661696c6564a264697066735822122049566e4d747a981964358845d0050b3cab02e1d62b560786b49bcf8afce295a864736f6c634300080c0033416464726573733a206c6f772d6c6576656c2064656c65676174652063616c6c206661696c6564a2646970667358221220ed5e2de60ba3735923f9a565ca2009746ae88bcf26c026b7e510068ebbe99e1764736f6c634300080c003360a0604052306080526005805460ff1916905534801561001e57600080fd5b506080516146fb61005660003960008181611330015281816113e001528181611d1601528181611dc60152611f0f01526146fb6000f3fe6080604052600436106102be5760003560e01c806353d94cf41161016e578063c1647ff5116100cb578063e007fd8d1161007f578063f905c15a11610064578063f905c15a14610956578063fe1477a914610970578063ffa1ad741461098f57600080fd5b8063e007fd8d146108f0578063f23a6e611461091057600080fd5b8063c70cb939116100b0578063c70cb93914610890578063c7d76308146108b0578063d1f57894146108d057600080fd5b8063c1647ff514610849578063c45a01551461085e57600080fd5b80638add427911610122578063a55e593d11610107578063a55e593d146107b0578063b0d691fe146107d0578063bc197c811461080157600080fd5b80638add427914610762578063a408d9a61461078257600080fd5b806372a9c5471161015357806372a9c547146106d757806380c5c7d01461072257806381296f6f1461074257600080fd5b806353d94cf41461061b5780637227b5841461068657600080fd5b80633659cfe61161021c5780634466aa30116101d05780634dbbc1f9116101b55780634dbbc1f9146105d35780634f1ef286146105f357806352d1902d1461060657600080fd5b80634466aa30146105935780634d9008f5146105b357600080fd5b80633ce0b014116102015780633ce0b014146104cc5780634086d5b6146105445780634192d2511461057357600080fd5b80633659cfe61461047e5780633a871cdd1461049e57600080fd5b8063150b7a02116102735780631b71bb6e116102585780631b71bb6e1461042b57806320d2a20f1461044b5780633102dd121461045e57600080fd5b8063150b7a02146103955780631626ba7e1461040b57600080fd5b806309648a9d116102a457806309648a9d1461032657806312fd67ba146103535780631397ea851461037557600080fd5b806223de29146102ca57806301ffc9a7146102f157600080fd5b366102c557005b600080fd5b3480156102d657600080fd5b506102ef6102e536600461364a565b5050505050505050565b005b3480156102fd57600080fd5b5061031161030c366004613729565b6109a4565b60405190151581526020015b60405180910390f35b34801561033257600080fd5b50610346610341366004613746565b610a89565b60405161031d91906137d5565b34801561035f57600080fd5b50610368610b2b565b60405161031d91906137e8565b34801561038157600080fd5b506102ef610390366004613842565b610cb4565b3480156103a157600080fd5b506103da6103b03660046138be565b7f150b7a020000000000000000000000000000000000000000000000000000000095945050505050565b6040517fffffffff00000000000000000000000000000000000000000000000000000000909116815260200161031d565b34801561041757600080fd5b506103da610426366004613931565b611011565b34801561043757600080fd5b506102ef61044636600461397d565b61117c565b61034661045936600461399a565b611276565b34801561046a57600080fd5b5061031161047936600461397d565b6112c4565b34801561048a57600080fd5b506102ef61049936600461397d565b611318565b3480156104aa57600080fd5b506104be6104b93660046139f6565b61151e565b60405190815260200161031d565b3480156104d857600080fd5b506105176104e7366004613a4a565b6002602052600090815260409020547bffffffffffffffffffffffffffffffffffffffffffffffffffffffff1681565b6040517bffffffffffffffffffffffffffffffffffffffffffffffffffffffff909116815260200161031d565b34801561055057600080fd5b506102ef61055f366004613a70565b60008281523360601b602052603490205550565b34801561057f57600080fd5b506102ef61058e366004613a92565b6115c3565b34801561059f57600080fd5b506102ef6105ae366004613ace565b6117ce565b3480156105bf57600080fd5b506102ef6105ce366004613b10565b505050565b3480156105df57600080fd5b506102ef6105ee366004613a92565b611bd6565b6102ef610601366004613c6b565b611cfe565b34801561061257600080fd5b506104be611ef5565b34801561062757600080fd5b5061066161063636600461397d565b73ffffffffffffffffffffffffffffffffffffffff9081166000908152600360205260409020541690565b60405173ffffffffffffffffffffffffffffffffffffffff909116815260200161031d565b34801561069257600080fd5b506104be6106a1366004613a4a565b63ffffffff166000908152600260205260409020547bffffffffffffffffffffffffffffffffffffffffffffffffffffffff1690565b3480156106e357600080fd5b506104be6106f2366004613cbb565b604080516060805196811b600090815295811b601452602894909452604892909252606890932092529190915290565b34801561072e57600080fd5b506102ef61073d36600461399a565b611fe1565b34801561074e57600080fd5b506102ef61075d366004613931565b612031565b34801561076e57600080fd5b506102ef61077d366004613d01565b612063565b34801561078e57600080fd5b506104be61079d366004613d3a565b600091825260601b602052603490205490565b3480156107bc57600080fd5b506102ef6107cb366004613746565b6120f9565b3480156107dc57600080fd5b5060005462010000900473ffffffffffffffffffffffffffffffffffffffff16610661565b34801561080d57600080fd5b506103da61081c366004613da4565b7fbc197c810000000000000000000000000000000000000000000000000000000098975050505050505050565b34801561085557600080fd5b506004546104be565b34801561086a57600080fd5b5060055461066190610100900473ffffffffffffffffffffffffffffffffffffffff1681565b34801561089c57600080fd5b506102ef6108ab366004613e42565b6121ef565b3480156108bc57600080fd5b506102ef6108cb366004613ea1565b612318565b3480156108dc57600080fd5b506102ef6108eb366004613a92565b61232a565b3480156108fc57600080fd5b506102ef61090b366004613ecd565b61262d565b34801561091c57600080fd5b506103da61092b366004613842565b7ff23a6e61000000000000000000000000000000000000000000000000000000009695505050505050565b34801561096257600080fd5b506005546103119060ff1681565b34801561097c57600080fd5b506104be61098b366004613746565b5490565b34801561099b57600080fd5b506104be600681565b60007fffffffff0000000000000000000000000000000000000000000000000000000082167f150b7a02000000000000000000000000000000000000000000000000000000001480610a3757507fffffffff0000000000000000000000000000000000000000000000000000000082167f4e2312e000000000000000000000000000000000000000000000000000000000145b80610a8357507fffffffff0000000000000000000000000000000000000000000000000000000082167f01ffc9a700000000000000000000000000000000000000000000000000000000145b92915050565b6000818152600160205260409020805460609190610aa690613fb5565b80601f0160208091040260200160405190810160405280929190818152602001828054610ad290613fb5565b8015610b1f5780601f10610af457610100808354040283529160200191610b1f565b820191906000526020600020905b815481529060010190602001808311610b0257829003601f168201915b50505050509050919050565b6060600060045411610b9e576040517f08c379a000000000000000000000000000000000000000000000000000000000815260206004820152600560248201527f465730323600000000000000000000000000000000000000000000000000000060448201526064015b60405180910390fd5b600060045467ffffffffffffffff811115610bbb57610bbb613b51565b604051908082528060200260200182016040528015610be4578160200160208202803683370190505b506001600090815260036020527fa15bc60c955c405d20d9149c709e2460f1c2d9a497496a7f46004d1772c3054c549192509073ffffffffffffffffffffffffffffffffffffffff165b73ffffffffffffffffffffffffffffffffffffffff8116600114610cac5780838381518110610c5f57610c5f614009565b73ffffffffffffffffffffffffffffffffffffffff928316602091820292909201810191909152918116600090815260039092526040909120541681610ca481614067565b925050610c2e565b509092915050565b604080516060805189821b600090815289831b60145260288990526048889052606890209383905290527f1626ba7e0000000000000000000000000000000000000000000000000000000081523090631626ba7e90610d1b908490879087906004016140e9565b602060405180830381865afa158015610d38573d6000803e3d6000fd5b505050506040513d601f19601f82011682018060405250810190610d5c9190614103565b7fffffffff00000000000000000000000000000000000000000000000000000000167f1626ba7e0000000000000000000000000000000000000000000000000000000014610e06576040517f08c379a000000000000000000000000000000000000000000000000000000000815260206004820152600560248201527f46573330310000000000000000000000000000000000000000000000000000006044820152606401610b95565b60e085901c6000908152600260205260408120805486927bffffffffffffffffffffffffffffffffffffffffffffffffffffffff9091169190610e4883614120565b91906101000a8154817bffffffffffffffffffffffffffffffffffffffffffffffffffffffff02191690837bffffffffffffffffffffffffffffffffffffffffffffffffffffffff1602179055507bffffffffffffffffffffffffffffffffffffffffffffffffffffffff1614610f1b576040517f08c379a000000000000000000000000000000000000000000000000000000000815260206004820152600560248201527f46573730300000000000000000000000000000000000000000000000000000006044820152606401610b95565b6040517f4d9008f500000000000000000000000000000000000000000000000000000000815273ffffffffffffffffffffffffffffffffffffffff808916600483015287166024820152604481018690523090634d9008f590606401600060405180830381600087803b158015610f9157600080fd5b505af1925050508015610fa2575060015b611008576040517f08c379a000000000000000000000000000000000000000000000000000000000815260206004820152600560248201527f46573730310000000000000000000000000000000000000000000000000000006044820152606401610b95565b50505050505050565b60008061101c610b2b565b905060005b81518160ff16101561114f5781517f1626ba7e0000000000000000000000000000000000000000000000000000000090839060ff841690811061106657611066614009565b602002602001015173ffffffffffffffffffffffffffffffffffffffff16631626ba7e8888886040518463ffffffff1660e01b81526004016110aa939291906140e9565b602060405180830381865afa1580156110c7573d6000803e3d6000fd5b505050506040513d601f19601f820116820180604052508101906110eb9190614103565b7fffffffff00000000000000000000000000000000000000000000000000000000161461113d57507fffffffff0000000000000000000000000000000000000000000000000000000091506111759050565b806111478161415c565b915050611021565b507f1626ba7e000000000000000000000000000000000000000000000000000000009150505b9392505050565b611184612642565b73ffffffffffffffffffffffffffffffffffffffff8116611201576040517f08c379a000000000000000000000000000000000000000000000000000000000815260206004820152600560248201527f46573130300000000000000000000000000000000000000000000000000000006044820152606401610b95565b600080547fffffffffffffffffffff0000000000000000000000000000000000000000ffff166201000073ffffffffffffffffffffffffffffffffffffffff841690810291909117825560405190917f94fe20369eda1036391e68ebc6af4965f710ae7bc0cb1c315895c028149582d291a250565b60606112b9858585858080601f0160208091040260200160405190810160405280939291908181526020018383808284376000920191909152506126cb92505050565b90505b949350505050565b73ffffffffffffffffffffffffffffffffffffffff81811660009081526003602052604081205490911615801590610a83575073ffffffffffffffffffffffffffffffffffffffff82166001141592915050565b3073ffffffffffffffffffffffffffffffffffffffff7f00000000000000000000000000000000000000000000000000000000000000001614156113de576040517f08c379a000000000000000000000000000000000000000000000000000000000815260206004820152602c60248201527f46756e6374696f6e206d7573742062652063616c6c6564207468726f7567682060448201527f64656c656761746563616c6c00000000000000000000000000000000000000006064820152608401610b95565b7f000000000000000000000000000000000000000000000000000000000000000073ffffffffffffffffffffffffffffffffffffffff166114537f360894a13ba1a3210667c828492db98dca3e2076cc3735a920a3ca505d382bbc5473ffffffffffffffffffffffffffffffffffffffff1690565b73ffffffffffffffffffffffffffffffffffffffff16146114f6576040517f08c379a000000000000000000000000000000000000000000000000000000000815260206004820152602c60248201527f46756e6374696f6e206d7573742062652063616c6c6564207468726f7567682060448201527f6163746976652070726f787900000000000000000000000000000000000000006064820152608401610b95565b6114ff81612754565b6040805160008082526020820190925261151b9183919061275c565b50565b6000805462010000900473ffffffffffffffffffffffffffffffffffffffff1633146115a6576040517f08c379a000000000000000000000000000000000000000000000000000000000815260206004820152600560248201527f46573032300000000000000000000000000000000000000000000000000000006044820152606401610b95565b6115b0848461295b565b6115b982612abc565b5060009392505050565b60055460ff1615611630576040517f08c379a000000000000000000000000000000000000000000000000000000000815260206004820152600560248201527f46573030300000000000000000000000000000000000000000000000000000006044820152606401610b95565b3330141561169a576040517f08c379a000000000000000000000000000000000000000000000000000000000815260206004820152600560248201527f46573030310000000000000000000000000000000000000000000000000000006044820152606401610b95565b7fd1f57894000000000000000000000000000000000000000000000000000000006116c960046000848661417c565b6116d2916141a6565b7fffffffff00000000000000000000000000000000000000000000000000000000161461175b576040517f08c379a000000000000000000000000000000000000000000000000000000000815260206004820152600560248201527f46573030320000000000000000000000000000000000000000000000000000006044820152606401610b95565b6005805433610100027fffffffffffffffffffffff000000000000000000000000000000000000000000909116176001179055604080516020601f84018190048102820181019092528281526105ce91859190859085908190840183828082843760009201829052509250612b27915050565b600160005260036020527fa15bc60c955c405d20d9149c709e2460f1c2d9a497496a7f46004d1772c3054c5473ffffffffffffffffffffffffffffffffffffffff1615611877576040517f08c379a000000000000000000000000000000000000000000000000000000000815260206004820152600560248201527f46573030300000000000000000000000000000000000000000000000000000006044820152606401610b95565b6000806118868385018561429d565b915091508051825114801561189c575060008251115b611902576040517f08c379a000000000000000000000000000000000000000000000000000000000815260206004820152600560248201527f46573032340000000000000000000000000000000000000000000000000000006044820152606401610b95565b600160005b82518160ff161015611b7f57838160ff168151811061192857611928614009565b602002602001015173ffffffffffffffffffffffffffffffffffffffff168273ffffffffffffffffffffffffffffffffffffffff1614156119c5576040517f08c379a000000000000000000000000000000000000000000000000000000000815260206004820152600560248201527f46573032330000000000000000000000000000000000000000000000000000006044820152606401610b95565b6119ea848260ff16815181106119dd576119dd614009565b6020026020010151612b4c565b838160ff16815181106119ff576119ff614009565b6020026020010151600360008473ffffffffffffffffffffffffffffffffffffffff1673ffffffffffffffffffffffffffffffffffffffff16815260200190815260200160002060006101000a81548173ffffffffffffffffffffffffffffffffffffffff021916908373ffffffffffffffffffffffffffffffffffffffff160217905550838160ff1681518110611a9957611a99614009565b602002602001015191506000838260ff1681518110611aba57611aba614009565b6020026020010151511115611b6d57838160ff1681518110611ade57611ade614009565b602002602001015173ffffffffffffffffffffffffffffffffffffffff16634ddf47d4848360ff1681518110611b1657611b16614009565b60200260200101516040518263ffffffff1660e01b8152600401611b3a91906137d5565b600060405180830381600087803b158015611b5457600080fd5b505af1158015611b68573d6000803e3d6000fd5b505050505b80611b778161415c565b915050611907565b5073ffffffffffffffffffffffffffffffffffffffff16600090815260036020526040902080547fffffffffffffffffffffffff000000000000000000000000000000000000000016600117905550516004555050565b611bdf83612b4c565b60036020527fa15bc60c955c405d20d9149c709e2460f1c2d9a497496a7f46004d1772c3054c805473ffffffffffffffffffffffffffffffffffffffff8581166000818152604081208054939094167fffffffffffffffffffffffff000000000000000000000000000000000000000093841617909355600183528354909116179091556004805491611c7183614067565b909155505080156105ce576040517f4ddf47d400000000000000000000000000000000000000000000000000000000815273ffffffffffffffffffffffffffffffffffffffff841690634ddf47d490611cd09085908590600401614355565b600060405180830381600087803b158015611cea57600080fd5b505af1158015611008573d6000803e3d6000fd5b3073ffffffffffffffffffffffffffffffffffffffff7f0000000000000000000000000000000000000000000000000000000000000000161415611dc4576040517f08c379a000000000000000000000000000000000000000000000000000000000815260206004820152602c60248201527f46756e6374696f6e206d7573742062652063616c6c6564207468726f7567682060448201527f64656c656761746563616c6c00000000000000000000000000000000000000006064820152608401610b95565b7f000000000000000000000000000000000000000000000000000000000000000073ffffffffffffffffffffffffffffffffffffffff16611e397f360894a13ba1a3210667c828492db98dca3e2076cc3735a920a3ca505d382bbc5473ffffffffffffffffffffffffffffffffffffffff1690565b73ffffffffffffffffffffffffffffffffffffffff1614611edc576040517f08c379a000000000000000000000000000000000000000000000000000000000815260206004820152602c60248201527f46756e6374696f6e206d7573742062652063616c6c6564207468726f7567682060448201527f6163746976652070726f787900000000000000000000000000000000000000006064820152608401610b95565b611ee582612754565b611ef18282600161275c565b5050565b60003073ffffffffffffffffffffffffffffffffffffffff7f00000000000000000000000000000000000000000000000000000000000000001614611fbc576040517f08c379a000000000000000000000000000000000000000000000000000000000815260206004820152603860248201527f555550535570677261646561626c653a206d757374206e6f742062652063616c60448201527f6c6564207468726f7567682064656c656761746563616c6c00000000000000006064820152608401610b95565b507f360894a13ba1a3210667c828492db98dca3e2076cc3735a920a3ca505d382bbc90565b611fe9612642565b61202a848484848080601f0160208091040260200160405190810160405280939291908181526020018383808284376000920191909152506126cb92505050565b5050505050565b60008381523360601b60205260349020600081815260016020526040902090935061205d908383613518565b50505050565b61206e816001612bc7565b6120788282612c92565b73ffffffffffffffffffffffffffffffffffffffff818116600081815260036020526040808220805487861684529183208054929095167fffffffffffffffffffffffff000000000000000000000000000000000000000092831617909455918152825490911690915560048054916120f083614369565b91905055505050565b612101612642565b8047101561216b576040517f08c379a000000000000000000000000000000000000000000000000000000000815260206004820152600560248201527f46573031300000000000000000000000000000000000000000000000000000006044820152606401610b95565b6000546040517fb760faf90000000000000000000000000000000000000000000000000000000081523060048201526201000090910473ffffffffffffffffffffffffffffffffffffffff169063b760faf990602401600060405180830381600087803b1580156121db57600080fd5b505af115801561202a573d6000803e3d6000fd5b6121f883612b4c565b612203846001612bc7565b61220d8585612c92565b73ffffffffffffffffffffffffffffffffffffffff848116600081815260036020526040808220805488861680855283852080549288167fffffffffffffffffffffffff0000000000000000000000000000000000000000938416179055958b168452918320805483169095179094559190528154169055801561202a576040517f4ddf47d400000000000000000000000000000000000000000000000000000000815273ffffffffffffffffffffffffffffffffffffffff841690634ddf47d4906122df9085908590600401614355565b600060405180830381600087803b1580156122f957600080fd5b505af115801561230d573d6000803e3d6000fd5b505050505050505050565b612320612642565b611ef18282612d25565b600054610100900460ff161580801561234a5750600054600160ff909116105b806123645750303b158015612364575060005460ff166001145b6123f0576040517f08c379a000000000000000000000000000000000000000000000000000000000815260206004820152602e60248201527f496e697469616c697a61626c653a20636f6e747261637420697320616c72656160448201527f647920696e697469616c697a65640000000000000000000000000000000000006064820152608401610b95565b600080547fffffffffffffffffffffffffffffffffffffffffffffffffffffffffffffff00166001179055801561244e57600080547fffffffffffffffffffffffffffffffffffffffffffffffffffffffffffff00ff166101001790555b73ffffffffffffffffffffffffffffffffffffffff84166124cb576040517f08c379a000000000000000000000000000000000000000000000000000000000815260206004820152600560248201527f46573130310000000000000000000000000000000000000000000000000000006044820152606401610b95565b33301415612535576040517f08c379a000000000000000000000000000000000000000000000000000000000815260206004820152600560248201527f46573030320000000000000000000000000000000000000000000000000000006044820152606401610b95565b600080547fffffffffffffffffffff0000000000000000000000000000000000000000ffff166201000073ffffffffffffffffffffffffffffffffffffffff87160217905561258483836117ce565b60405173ffffffffffffffffffffffffffffffffffffffff8516907f94fe20369eda1036391e68ebc6af4965f710ae7bc0cb1c315895c028149582d290600090a2801561205d57600080547fffffffffffffffffffffffffffffffffffffffffffffffffffffffffffff00ff169055604051600181527f7f26b83ff96e1f2b6a682f133852f6798a09c465da95921460cefb38474024989060200160405180910390a150505050565b61263985858585611fe1565b61202a81612e17565b60005462010000900473ffffffffffffffffffffffffffffffffffffffff1633146126c9576040517f08c379a000000000000000000000000000000000000000000000000000000000815260206004820152600560248201527f46573032310000000000000000000000000000000000000000000000000000006044820152606401610b95565b565b60606000808573ffffffffffffffffffffffffffffffffffffffff1685856040516126f6919061439e565b60006040518083038185875af1925050503d8060008114612733576040519150601f19603f3d011682016040523d82523d6000602084013e612738565b606091505b5090925090508161274b57805160208201fd5b95945050505050565b61151b612642565b7f4910fdfa16fed3260ed0e7147f7cc6da11a60208b5b9406d12a635614ffd91435460ff161561278f576105ce836130c7565b8273ffffffffffffffffffffffffffffffffffffffff166352d1902d6040518163ffffffff1660e01b8152600401602060405180830381865afa925050508015612814575060408051601f3d9081017fffffffffffffffffffffffffffffffffffffffffffffffffffffffffffffffe0168201909252612811918101906143ba565b60015b6128a0576040517f08c379a000000000000000000000000000000000000000000000000000000000815260206004820152602e60248201527f45524331393637557067726164653a206e657720696d706c656d656e7461746960448201527f6f6e206973206e6f7420555550530000000000000000000000000000000000006064820152608401610b95565b7f360894a13ba1a3210667c828492db98dca3e2076cc3735a920a3ca505d382bbc811461294f576040517f08c379a000000000000000000000000000000000000000000000000000000000815260206004820152602960248201527f45524331393637557067726164653a20756e737570706f727465642070726f7860448201527f6961626c655555494400000000000000000000000000000000000000000000006064820152608401610b95565b506105ce838383612b27565b600061296b6101408401846143d3565b9050116129d4576040517f08c379a000000000000000000000000000000000000000000000000000000000815260206004820152600560248201527f46573032370000000000000000000000000000000000000000000000000000006044820152606401610b95565b60006129de610b2b565b905060005b81518160ff16101561205d57818160ff1681518110612a0457612a04614009565b602002602001015173ffffffffffffffffffffffffffffffffffffffff1663525e46f285856040518363ffffffff1660e01b8152600401612a4692919061449c565b600060405180830381865afa158015612a63573d6000803e3d6000fd5b505050506040513d6000823e601f3d9081017fffffffffffffffffffffffffffffffffffffffffffffffffffffffffffffffe0168201604052612aa991908101906145ef565b5080612ab48161415c565b9150506129e3565b801561151b5760405160009033907fffffffffffffffffffffffffffffffffffffffffffffffffffffffffffffffff90849084818181858888f193505050503d806000811461202a576040519150601f19603f3d011682016040523d82523d6000602084013e61202a565b612b30836131d1565b600082511180612b3d5750805b156105ce5761205d838361321e565b612b57816000612bc7565b612b60816112c4565b1561151b576040517f08c379a000000000000000000000000000000000000000000000000000000000815260206004820152600560248201527f46573032330000000000000000000000000000000000000000000000000000006044820152606401610b95565b73ffffffffffffffffffffffffffffffffffffffff821615801590612c03575073ffffffffffffffffffffffffffffffffffffffff8216600114155b8015612c2c57508080612c2c575073ffffffffffffffffffffffffffffffffffffffff82163014155b611ef1576040517f08c379a000000000000000000000000000000000000000000000000000000000815260206004820152600560248201527f46573032320000000000000000000000000000000000000000000000000000006044820152606401610b95565b73ffffffffffffffffffffffffffffffffffffffff828116600090815260036020526040902054811690821614611ef1576040517f08c379a000000000000000000000000000000000000000000000000000000000815260206004820152600560248201527f46573032350000000000000000000000000000000000000000000000000000006044820152606401610b95565b6000546040517f205c287800000000000000000000000000000000000000000000000000000000815273ffffffffffffffffffffffffffffffffffffffff848116600483015260248201849052620100009092049091169063205c287890604401600060405180830381600087803b158015612da057600080fd5b505af1925050508015612db1575060015b611ef1576040517f08c379a000000000000000000000000000000000000000000000000000000000815260206004820152600560248201527f46573031310000000000000000000000000000000000000000000000000000006044820152606401610b95565b6000612e21613243565b90506000808273ffffffffffffffffffffffffffffffffffffffff1663fcee45f485604001516040518263ffffffff1660e01b8152600401612e6591815260200190565b6040805180830381865afa158015612e81573d6000803e3d6000fd5b505050506040513d601f19601f82011682018060405250810190612ea5919061465d565b8551919350915073ffffffffffffffffffffffffffffffffffffffff16612ee357612ed48460200151826132db565b612ede83836132db565b61205d565b835160208501516040517f4d9008f500000000000000000000000000000000000000000000000000000000815273ffffffffffffffffffffffffffffffffffffffff928316600482015291166024820152604481018290523090634d9008f590606401600060405180830381600087803b158015612f6057600080fd5b505af1925050508015612f71575060015b612fd7576040517f08c379a000000000000000000000000000000000000000000000000000000000815260206004820152600560248201527f46573031330000000000000000000000000000000000000000000000000000006044820152606401610b95565b83516040517f4d9008f500000000000000000000000000000000000000000000000000000000815273ffffffffffffffffffffffffffffffffffffffff91821660048201529084166024820152604481018390523090634d9008f590606401600060405180830381600087803b15801561305057600080fd5b505af1925050508015613061575060015b61205d576040517f08c379a000000000000000000000000000000000000000000000000000000000815260206004820152600560248201527f46573031340000000000000000000000000000000000000000000000000000006044820152606401610b95565b73ffffffffffffffffffffffffffffffffffffffff81163b61316b576040517f08c379a000000000000000000000000000000000000000000000000000000000815260206004820152602d60248201527f455243313936373a206e657720696d706c656d656e746174696f6e206973206e60448201527f6f74206120636f6e7472616374000000000000000000000000000000000000006064820152608401610b95565b7f360894a13ba1a3210667c828492db98dca3e2076cc3735a920a3ca505d382bbc80547fffffffffffffffffffffffff00000000000000000000000000000000000000001673ffffffffffffffffffffffffffffffffffffffff92909216919091179055565b6131da816130c7565b60405173ffffffffffffffffffffffffffffffffffffffff8216907fbc7cd75a20ee27fd9adebab32041f755214dbc6bffa90cc0225b39da2e5c2d3b90600090a250565b6060611175838360405180606001604052806027815260200161469f602791396133b7565b6000600560019054906101000a900473ffffffffffffffffffffffffffffffffffffffff1673ffffffffffffffffffffffffffffffffffffffff1663833b1fce6040518163ffffffff1660e01b8152600401602060405180830381865afa1580156132b2573d6000803e3d6000fd5b505050506040513d601f19601f820116820180604052508101906132d69190614681565b905090565b804710156132ed57611ef18282612d25565b60008273ffffffffffffffffffffffffffffffffffffffff168260405160006040518083038185875af1925050503d8060008114613347576040519150601f19603f3d011682016040523d82523d6000602084013e61334c565b606091505b50509050806105ce576040517f08c379a000000000000000000000000000000000000000000000000000000000815260206004820152600560248201527f46573031320000000000000000000000000000000000000000000000000000006044820152606401610b95565b60606000808573ffffffffffffffffffffffffffffffffffffffff16856040516133e1919061439e565b600060405180830381855af49150503d806000811461341c576040519150601f19603f3d011682016040523d82523d6000602084013e613421565b606091505b50915091506134328683838761343c565b9695505050505050565b606083156134cf5782516134c85773ffffffffffffffffffffffffffffffffffffffff85163b6134c8576040517f08c379a000000000000000000000000000000000000000000000000000000000815260206004820152601d60248201527f416464726573733a2063616c6c20746f206e6f6e2d636f6e74726163740000006044820152606401610b95565b50816112bc565b6112bc83838151156134e45781518083602001fd5b806040517f08c379a0000000000000000000000000000000000000000000000000000000008152600401610b9591906137d5565b82805461352490613fb5565b90600052602060002090601f01602090048101928261354657600085556135aa565b82601f1061357d578280017fffffffffffffffffffffffffffffffffffffffffffffffffffffffffffffff008235161785556135aa565b828001600101855582156135aa579182015b828111156135aa57823582559160200191906001019061358f565b506135b69291506135ba565b5090565b5b808211156135b657600081556001016135bb565b73ffffffffffffffffffffffffffffffffffffffff8116811461151b57600080fd5b80356135fc816135cf565b919050565b60008083601f84011261361357600080fd5b50813567ffffffffffffffff81111561362b57600080fd5b60208301915083602082850101111561364357600080fd5b9250929050565b60008060008060008060008060c0898b03121561366657600080fd5b8835613671816135cf565b97506020890135613681816135cf565b96506040890135613691816135cf565b955060608901359450608089013567ffffffffffffffff808211156136b557600080fd5b6136c18c838d01613601565b909650945060a08b01359150808211156136da57600080fd5b506136e78b828c01613601565b999c989b5096995094979396929594505050565b7fffffffff000000000000000000000000000000000000000000000000000000008116811461151b57600080fd5b60006020828403121561373b57600080fd5b8135611175816136fb565b60006020828403121561375857600080fd5b5035919050565b60005b8381101561377a578181015183820152602001613762565b8381111561205d5750506000910152565b600081518084526137a381602086016020860161375f565b601f017fffffffffffffffffffffffffffffffffffffffffffffffffffffffffffffffe0169290920160200192915050565b602081526000611175602083018461378b565b6020808252825182820181905260009190848201906040850190845b8181101561383657835173ffffffffffffffffffffffffffffffffffffffff1683529284019291840191600101613804565b50909695505050505050565b60008060008060008060a0878903121561385b57600080fd5b8635613866816135cf565b95506020870135613876816135cf565b94506040870135935060608701359250608087013567ffffffffffffffff8111156138a057600080fd5b6138ac89828a01613601565b979a9699509497509295939492505050565b6000806000806000608086880312156138d657600080fd5b85356138e1816135cf565b945060208601356138f1816135cf565b935060408601359250606086013567ffffffffffffffff81111561391457600080fd5b61392088828901613601565b969995985093965092949392505050565b60008060006040848603121561394657600080fd5b83359250602084013567ffffffffffffffff81111561396457600080fd5b61397086828701613601565b9497909650939450505050565b60006020828403121561398f57600080fd5b8135611175816135cf565b600080600080606085870312156139b057600080fd5b84356139bb816135cf565b935060208501359250604085013567ffffffffffffffff8111156139de57600080fd5b6139ea87828801613601565b95989497509550505050565b600080600060608486031215613a0b57600080fd5b833567ffffffffffffffff811115613a2257600080fd5b84016101608187031215613a3557600080fd5b95602085013595506040909401359392505050565b600060208284031215613a5c57600080fd5b813563ffffffff8116811461117557600080fd5b60008060408385031215613a8357600080fd5b50508035926020909101359150565b600080600060408486031215613aa757600080fd5b8335613ab2816135cf565b9250602084013567ffffffffffffffff81111561396457600080fd5b60008060208385031215613ae157600080fd5b823567ffffffffffffffff811115613af857600080fd5b613b0485828601613601565b90969095509350505050565b600080600060608486031215613b2557600080fd5b8335613b30816135cf565b92506020840135613b40816135cf565b929592945050506040919091013590565b7f4e487b7100000000000000000000000000000000000000000000000000000000600052604160045260246000fd5b604051601f82017fffffffffffffffffffffffffffffffffffffffffffffffffffffffffffffffe016810167ffffffffffffffff81118282101715613bc757613bc7613b51565b604052919050565b600067ffffffffffffffff821115613be957613be9613b51565b50601f017fffffffffffffffffffffffffffffffffffffffffffffffffffffffffffffffe01660200190565b600082601f830112613c2657600080fd5b8135613c39613c3482613bcf565b613b80565b818152846020838601011115613c4e57600080fd5b816020850160208301376000918101602001919091529392505050565b60008060408385031215613c7e57600080fd5b8235613c89816135cf565b9150602083013567ffffffffffffffff811115613ca557600080fd5b613cb185828601613c15565b9150509250929050565b60008060008060808587031215613cd157600080fd5b8435613cdc816135cf565b93506020850135613cec816135cf565b93969395505050506040820135916060013590565b60008060408385031215613d1457600080fd5b8235613d1f816135cf565b91506020830135613d2f816135cf565b809150509250929050565b60008060408385031215613d4d57600080fd5b823591506020830135613d2f816135cf565b60008083601f840112613d7157600080fd5b50813567ffffffffffffffff811115613d8957600080fd5b6020830191508360208260051b850101111561364357600080fd5b60008060008060008060008060a0898b031215613dc057600080fd5b8835613dcb816135cf565b97506020890135613ddb816135cf565b9650604089013567ffffffffffffffff80821115613df857600080fd5b613e048c838d01613d5f565b909850965060608b0135915080821115613e1d57600080fd5b613e298c838d01613d5f565b909650945060808b01359150808211156136da57600080fd5b600080600080600060808688031215613e5a57600080fd5b8535613e65816135cf565b94506020860135613e75816135cf565b93506040860135613e85816135cf565b9250606086013567ffffffffffffffff81111561391457600080fd5b60008060408385031215613eb457600080fd5b8235613ebf816135cf565b946020939093013593505050565b600080600080600085870360c0811215613ee657600080fd5b8635613ef1816135cf565b955060208701359450604087013567ffffffffffffffff80821115613f1557600080fd5b613f218a838b01613601565b909650945084915060607fffffffffffffffffffffffffffffffffffffffffffffffffffffffffffffffa084011215613f5957600080fd5b60405192506060830191508282108183111715613f7857613f78613b51565b506040526060870135613f8a816135cf565b81526080870135613f9a816135cf565b602082015260a0969096013560408701525092959194509290565b600181811c90821680613fc957607f821691505b60208210811415614003577f4e487b7100000000000000000000000000000000000000000000000000000000600052602260045260246000fd5b50919050565b7f4e487b7100000000000000000000000000000000000000000000000000000000600052603260045260246000fd5b7f4e487b7100000000000000000000000000000000000000000000000000000000600052601160045260246000fd5b60007fffffffffffffffffffffffffffffffffffffffffffffffffffffffffffffffff82141561409957614099614038565b5060010190565b8183528181602085013750600060208284010152600060207fffffffffffffffffffffffffffffffffffffffffffffffffffffffffffffffe0601f840116840101905092915050565b8381526040602082015260006112b96040830184866140a0565b60006020828403121561411557600080fd5b8151611175816136fb565b60007bffffffffffffffffffffffffffffffffffffffffffffffffffffffff8083168181141561415257614152614038565b6001019392505050565b600060ff821660ff81141561417357614173614038565b60010192915050565b6000808585111561418c57600080fd5b8386111561419957600080fd5b5050820193919092039150565b7fffffffff0000000000000000000000000000000000000000000000000000000081358181169160048510156141e65780818660040360031b1b83161692505b505092915050565b600067ffffffffffffffff82111561420857614208613b51565b5060051b60200190565b600082601f83011261422357600080fd5b81356020614233613c34836141ee565b82815260059290921b8401810191818101908684111561425257600080fd5b8286015b8481101561429257803567ffffffffffffffff8111156142765760008081fd5b6142848986838b0101613c15565b845250918301918301614256565b509695505050505050565b600080604083850312156142b057600080fd5b823567ffffffffffffffff808211156142c857600080fd5b818501915085601f8301126142dc57600080fd5b813560206142ec613c34836141ee565b82815260059290921b8401810191818101908984111561430b57600080fd5b948201945b83861015614332578535614323816135cf565b82529482019490820190614310565b9650508601359250508082111561434857600080fd5b50613cb185828601614212565b6020815260006112bc6020830184866140a0565b60008161437857614378614038565b507fffffffffffffffffffffffffffffffffffffffffffffffffffffffffffffffff0190565b600082516143b081846020870161375f565b9190910192915050565b6000602082840312156143cc57600080fd5b5051919050565b60008083357fffffffffffffffffffffffffffffffffffffffffffffffffffffffffffffffe184360301811261440857600080fd5b83018035915067ffffffffffffffff82111561442357600080fd5b60200191503681900382131561364357600080fd5b60008083357fffffffffffffffffffffffffffffffffffffffffffffffffffffffffffffffe184360301811261446d57600080fd5b830160208101925035905067ffffffffffffffff81111561448d57600080fd5b80360383131561364357600080fd5b606081526144ca606082016144b0856135f1565b73ffffffffffffffffffffffffffffffffffffffff169052565b6020830135608082015260006144e36040850185614438565b6101608060a08601526144fb6101c0860183856140a0565b925061450a6060880188614438565b92507fffffffffffffffffffffffffffffffffffffffffffffffffffffffffffffffa0808786030160c08801526145428585846140a0565b9450608089013560e0880152610100935060a089013584880152610120915060c08901358288015261014060e08a013581890152848a01358489015261458a838b018b614438565b9550935081888703016101808901526145a48686866140a0565b95506145b2818b018b614438565b955093505080878603016101a088015250506145cf8383836140a0565b92505050836020840152828103604084015261274b816000815260200190565b60006020828403121561460157600080fd5b815167ffffffffffffffff81111561461857600080fd5b8201601f8101841361462957600080fd5b8051614637613c3482613bcf565b81815285602083850101111561464c57600080fd5b61274b82602083016020860161375f565b6000806040838503121561467057600080fd5b505080516020909101519092909150565b60006020828403121561469357600080fd5b8151611175816135cf56fe416464726573733a206c6f772d6c6576656c2064656c65676174652063616c6c206661696c6564a26469706673582212208d7b711216af8b78ba8345c706c25c08a9a04e4c96d0133707f4b53497d859eb64736f6c634300080c0033","linkReferences":{},"deployedLinkReferences":{},"fileHash":"e39359c3f38a10cb11c48495364f68e82ef0eef37f09ae7a70af8c0097d6591a"}