{"_format":"hh-sol-artifact-1","contractName":"UserAuthentication","sourceName":"contracts/validations/UserAuthentication.sol","abi":[{"inputs":[],"name":"ADMIN_ROLE","outputs":[{"internalType":"bytes32","name":"","type":"bytes32"}],"stateMutability":"view","type":"function"},{"inputs":[],"name":"INIT_HASH","outputs":[{"internalType":"bytes32","name":"","type":"bytes32"}],"stateMutability":"view","type":"function"},{"inputs":[],"name":"VERSION","outputs":[{"internalType":"uint256","name":"","type":"uint256"}],"stateMutability":"view","type":"function"},{"inputs":[{"components":[{"internalType":"address","name":"sender","type":"address"},{"internalType":"uint256","name":"nonce","type":"uint256"},{"internalType":"bytes","name":"initCode","type":"bytes"},{"internalType":"bytes","name":"callData","type":"bytes"},{"internalType":"uint256","name":"callGasLimit","type":"uint256"},{"internalType":"uint256","name":"verificationGasLimit","type":"uint256"},{"internalType":"uint256","name":"preVerificationGas","type":"uint256"},{"internalType":"uint256","name":"maxFeePerGas","type":"uint256"},{"internalType":"uint256","name":"maxPriorityFeePerGas","type":"uint256"},{"internalType":"bytes","name":"paymasterAndData","type":"bytes"},{"internalType":"bytes","name":"signature","type":"bytes"}],"internalType":"struct UserOperation","name":"userOp","type":"tuple"},{"internalType":"bytes32","name":"userOpHash","type":"bytes32"},{"internalType":"bytes","name":"","type":"bytes"}],"name":"authenticateUserOp","outputs":[{"internalType":"bytes","name":"","type":"bytes"}],"stateMutability":"view","type":"function"},{"inputs":[{"internalType":"bytes32","name":"groupId","type":"bytes32"},{"components":[{"internalType":"bytes32[]","name":"userIds","type":"bytes32[]"},{"internalType":"uint256","name":"threshold","type":"uint256"}],"internalType":"struct MultiSigGroup","name":"group","type":"tuple"}],"name":"createMultiSigGroup","outputs":[],"stateMutability":"nonpayable","type":"function"},{"inputs":[{"internalType":"bytes32","name":"groupId","type":"bytes32"}],"name":"deleteMultiSigGroup","outputs":[],"stateMutability":"nonpayable","type":"function"},{"inputs":[{"internalType":"bytes32","name":"key","type":"bytes32"}],"name":"getState","outputs":[{"internalType":"bytes","name":"state","type":"bytes"}],"stateMutability":"view","type":"function"},{"inputs":[{"internalType":"bytes32","name":"key","type":"bytes32"}],"name":"getState32","outputs":[{"internalType":"bytes32","name":"state","type":"bytes32"}],"stateMutability":"view","type":"function"},{"inputs":[{"internalType":"bytes","name":"multiSigInitData","type":"bytes"}],"name":"init","outputs":[],"stateMutability":"nonpayable","type":"function"},{"inputs":[{"internalType":"bytes32","name":"_hash","type":"bytes32"},{"internalType":"bytes","name":"_signature","type":"bytes"}],"name":"isValidSignature","outputs":[{"internalType":"bytes4","name":"","type":"bytes4"}],"stateMutability":"view","type":"function"},{"inputs":[{"internalType":"bytes[]","name":"calls","type":"bytes[]"}],"name":"multiCall","outputs":[],"stateMutability":"nonpayable","type":"function"},{"inputs":[{"internalType":"bytes32","name":"groupId","type":"bytes32"},{"components":[{"internalType":"bytes32[]","name":"userIds","type":"bytes32[]"},{"internalType":"uint256","name":"threshold","type":"uint256"}],"internalType":"struct MultiSigGroup","name":"group","type":"tuple"}],"name":"updateMultiSigGroup","outputs":[],"stateMutability":"nonpayable","type":"function"}],"bytecode":"0x608060405234801561001057600080fd5b50611f39806100206000396000f3fe608060405234801561001057600080fd5b50600436106100d45760003560e01c80634ddf47d411610081578063f528a60a1161005b578063f528a60a146101ff578063fe1477a914610212578063ffa1ad741461022557600080fd5b80634ddf47d4146101b2578063525e46f2146101c557806375b238fc146101d857600080fd5b80632517781d116100b25780632517781d14610177578063348a0cdc1461018c578063371b81391461019f57600080fd5b8063057a0e2b146100d957806309648a9d146101135780631626ba7e14610133575b600080fd5b6101007f696e69742e736c6f74000000000000000000000000000000000000000000000081565b6040519081526020015b60405180910390f35b61012661012136600461147f565b61022d565b60405161010a9190611512565b610146610141366004611567565b6102ed565b6040517fffffffff00000000000000000000000000000000000000000000000000000000909116815260200161010a565b61018a61018536600461173b565b61036e565b005b61018a61019a366004611782565b610413565b61018a6101ad36600461173b565b6104c0565b61018a6101c03660046117f7565b6107d2565b6101266101d33660046118d0565b610906565b6101007f61646d696e00000000000000000000000000000000000000000000000000000081565b61018a61020d36600461147f565b610a35565b61010061022036600461147f565b610b56565b610100600281565b606060006102488330600091825260601b6020526034902090565b6040517f09648a9d0000000000000000000000000000000000000000000000000000000081526004810182905290915033906309648a9d90602401600060405180830381865afa1580156102a0573d6000803e3d6000fd5b505050506040513d6000823e601f3d9081017fffffffffffffffffffffffffffffffffffffffffffffffffffffffffffffffe01682016040526102e6919081019061198b565b9392505050565b6000806000806102fd8686610be4565b50935093509350506103118383838a610c0a565b1561034257507f1626ba7e0000000000000000000000000000000000000000000000000000000092506102e6915050565b507fffffffff000000000000000000000000000000000000000000000000000000009695505050505050565b60016103997f696e69742e736c6f740000000000000000000000000000000000000000000000610b56565b14610405576040517f08c379a000000000000000000000000000000000000000000000000000000000815260206004820152600560248201527f465730333000000000000000000000000000000000000000000000000000000060448201526064015b60405180910390fd5b61040f8282610c46565b5050565b60005b818110156104bb57600030848484818110610433576104336119c0565b905060200281019061044591906119ef565b604051610453929190611a54565b600060405180830381855af49150503d806000811461048e576040519150601f19603f3d011682016040523d82523d6000602084013e610493565b606091505b50509050806104a8576040513d6000823e3d81fd5b50806104b381611a64565b915050610416565b505050565b60016104eb7f696e69742e736c6f740000000000000000000000000000000000000000000000610b56565b14610552576040517f08c379a000000000000000000000000000000000000000000000000000000000815260206004820152600560248201527f465730333000000000000000000000000000000000000000000000000000000060448201526064016103fc565b8051516105bb576040517f08c379a000000000000000000000000000000000000000000000000000000000815260206004820152600560248201527f465733303200000000000000000000000000000000000000000000000000000060448201526064016103fc565b6000816020015111610629576040517f08c379a000000000000000000000000000000000000000000000000000000000815260206004820152600560248201527f465733303300000000000000000000000000000000000000000000000000000060448201526064016103fc565b80515160208201511115610699576040517f08c379a000000000000000000000000000000000000000000000000000000000815260206004820152600560248201527f465733303300000000000000000000000000000000000000000000000000000060448201526064016103fc565b60006106a48361022d565b9050805160001415610712576040517f08c379a000000000000000000000000000000000000000000000000000000000815260206004820152600560248201527f465733303400000000000000000000000000000000000000000000000000000060448201526064016103fc565b816040516020016107239190611ac4565b60405160208183030381529060405280519060200120818051906020012014156107a9576040517f08c379a000000000000000000000000000000000000000000000000000000000815260206004820152600560248201527f465733303700000000000000000000000000000000000000000000000000000060448201526064016103fc565b6104bb83836040516020016107be9190611ac4565b604051602081830303815290604052610e05565b60006107fd7f696e69742e736c6f740000000000000000000000000000000000000000000000610b56565b14610864576040517f08c379a000000000000000000000000000000000000000000000000000000000815260206004820152600560248201527f465730333000000000000000000000000000000000000000000000000000000060448201526064016103fc565b80156108db5760008061087983850185611b20565b9150915060005b82518110156108d7576108c583828151811061089e5761089e6119c0565b60200260200101518383815181106108b8576108b86119c0565b6020026020010151610c46565b806108cf81611a64565b915050610880565b5050505b61040f7f696e69742e736c6f7400000000000000000000000000000000000000000000006001610e79565b6060600080808061092361091e6101408a018a6119ef565b610be4565b50935093509350935083156109b857608088013561095657604051806020016040528060008152509450505050506102e6565b6040517f08c379a000000000000000000000000000000000000000000000000000000000815260206004820152600560248201527f465733303000000000000000000000000000000000000000000000000000000060448201526064016103fc565b6109c48383838a610c0a565b610a2a576040517f08c379a000000000000000000000000000000000000000000000000000000000815260206004820152600560248201527f465733303100000000000000000000000000000000000000000000000000000060448201526064016103fc565b505050509392505050565b6001610a607f696e69742e736c6f740000000000000000000000000000000000000000000000610b56565b14610ac7576040517f08c379a000000000000000000000000000000000000000000000000000000000815260206004820152600560248201527f465730333000000000000000000000000000000000000000000000000000000060448201526064016103fc565b6000610ad28261022d565b5111610b3a576040517f08c379a000000000000000000000000000000000000000000000000000000000815260206004820152600560248201527f465733303400000000000000000000000000000000000000000000000000000060448201526064016103fc565b610b538160405180602001604052806000815250610e05565b50565b60008181523060601b6020526034812081906040517ffe1477a900000000000000000000000000000000000000000000000000000000815260048101829052909150339063fe1477a990602401602060405180830381865afa158015610bc0573d6000803e3d6000fd5b505050506040513d601f19601f820116820180604052508101906102e69190611bf5565b60008080606080610bf786880188611c1d565b939b929a50909850965090945092505050565b600060ff8516610c2757610c1f838386610ebd565b159050610c3e565b60ff85166001141561095657610c1f838386610f34565b949350505050565b805151610caf576040517f08c379a000000000000000000000000000000000000000000000000000000000815260206004820152600560248201527f465733303200000000000000000000000000000000000000000000000000000060448201526064016103fc565b6000816020015111610d1d576040517f08c379a000000000000000000000000000000000000000000000000000000000815260206004820152600560248201527f465733303300000000000000000000000000000000000000000000000000000060448201526064016103fc565b80515160208201511115610d8d576040517f08c379a000000000000000000000000000000000000000000000000000000000815260206004820152600560248201527f465733303300000000000000000000000000000000000000000000000000000060448201526064016103fc565b6000610d988361022d565b905080516000146107a9576040517f08c379a000000000000000000000000000000000000000000000000000000000815260206004820152600560248201527f465733303400000000000000000000000000000000000000000000000000000060448201526064016103fc565b6040517f81296f6f00000000000000000000000000000000000000000000000000000000815233906381296f6f90610e439085908590600401611ce4565b600060405180830381600087803b158015610e5d57600080fd5b505af1158015610e71573d6000803e3d6000fd5b505050505050565b6040517f4086d5b600000000000000000000000000000000000000000000000000000000815260048101839052602481018290523390634086d5b690604401610e43565b600080610f17846040517f19457468657265756d205369676e6564204d6573736167653a0a3332000000006020820152603c8101829052600090605c01604051602081830303815290604052805190602001209050919050565b90506000610f25828761116f565b90931460011895945050505050565b600080610f408361022d565b90506000815111610fad576040517f08c379a000000000000000000000000000000000000000000000000000000000815260206004820152600560248201527f465733303400000000000000000000000000000000000000000000000000000060448201526064016103fc565b600081806020019051810190610fc39190611cfd565b905060008087806020019051810190610fdc9190611e48565b91509150805182511461104b576040517f08c379a000000000000000000000000000000000000000000000000000000000815260206004820152600b60248201527f46573330353a207369677300000000000000000000000000000000000000000060448201526064016103fc565b8260200151825110156110ba576040517f08c379a000000000000000000000000000000000000000000000000000000000815260206004820152601060248201527f46573330353a207468726573686f6c640000000000000000000000000000000060448201526064016103fc565b6000805b8351811015611148576111248382815181106110dc576110dc6119c0565b60200260200101518a87600001518785815181106110fc576110fc6119c0565b602002602001015160ff1681518110611117576111176119c0565b6020026020010151610ebd565b611136578161113281611a64565b9250505b8061114081611a64565b9150506110be565b50836020015181101561115c57600161115f565b60005b60ff169998505050505050505050565b600080600061117e8585611193565b9150915061118b816111d9565b509392505050565b6000808251604114156111ca5760208301516040840151606085015160001a6111be87828585611390565b945094505050506111d2565b506000905060025b9250929050565b60008160048111156111ed576111ed611cb5565b14156111f65750565b600181600481111561120a5761120a611cb5565b1415611272576040517f08c379a000000000000000000000000000000000000000000000000000000000815260206004820152601860248201527f45434453413a20696e76616c6964207369676e6174757265000000000000000060448201526064016103fc565b600281600481111561128657611286611cb5565b14156112ee576040517f08c379a000000000000000000000000000000000000000000000000000000000815260206004820152601f60248201527f45434453413a20696e76616c6964207369676e6174757265206c656e6774680060448201526064016103fc565b600381600481111561130257611302611cb5565b1415610b53576040517f08c379a000000000000000000000000000000000000000000000000000000000815260206004820152602260248201527f45434453413a20696e76616c6964207369676e6174757265202773272076616c60448201527f756500000000000000000000000000000000000000000000000000000000000060648201526084016103fc565b6000807f7fffffffffffffffffffffffffffffff5d576e7357a4501ddfe92f46681b20a08311156113c75750600090506003611476565b6040805160008082526020820180845289905260ff881692820192909252606081018690526080810185905260019060a0016020604051602081039080840390855afa15801561141b573d6000803e3d6000fd5b50506040517fffffffffffffffffffffffffffffffffffffffffffffffffffffffffffffffe0015191505073ffffffffffffffffffffffffffffffffffffffff811661146f57600060019250925050611476565b9150600090505b94509492505050565b60006020828403121561149157600080fd5b5035919050565b60005b838110156114b357818101518382015260200161149b565b838111156114c2576000848401525b50505050565b600081518084526114e0816020860160208601611498565b601f017fffffffffffffffffffffffffffffffffffffffffffffffffffffffffffffffe0169290920160200192915050565b6020815260006102e660208301846114c8565b60008083601f84011261153757600080fd5b50813567ffffffffffffffff81111561154f57600080fd5b6020830191508360208285010111156111d257600080fd5b60008060006040848603121561157c57600080fd5b83359250602084013567ffffffffffffffff81111561159a57600080fd5b6115a686828701611525565b9497909650939450505050565b7f4e487b7100000000000000000000000000000000000000000000000000000000600052604160045260246000fd5b6040805190810167ffffffffffffffff81118282101715611605576116056115b3565b60405290565b604051601f82017fffffffffffffffffffffffffffffffffffffffffffffffffffffffffffffffe016810167ffffffffffffffff81118282101715611652576116526115b3565b604052919050565b600067ffffffffffffffff821115611674576116746115b3565b5060051b60200190565b600082601f83011261168f57600080fd5b813560206116a461169f8361165a565b61160b565b82815260059290921b840181019181810190868411156116c357600080fd5b8286015b848110156116de57803583529183019183016116c7565b509695505050505050565b6000604082840312156116fb57600080fd5b6117036115e2565b9050813567ffffffffffffffff81111561171c57600080fd5b6117288482850161167e565b8252506020820135602082015292915050565b6000806040838503121561174e57600080fd5b82359150602083013567ffffffffffffffff81111561176c57600080fd5b611778858286016116e9565b9150509250929050565b6000806020838503121561179557600080fd5b823567ffffffffffffffff808211156117ad57600080fd5b818501915085601f8301126117c157600080fd5b8135818111156117d057600080fd5b8660208260051b85010111156117e557600080fd5b60209290920196919550909350505050565b6000806020838503121561180a57600080fd5b823567ffffffffffffffff81111561182157600080fd5b61182d85828601611525565b90969095509350505050565b600067ffffffffffffffff821115611853576118536115b3565b50601f017fffffffffffffffffffffffffffffffffffffffffffffffffffffffffffffffe01660200190565b600082601f83011261189057600080fd5b813561189e61169f82611839565b8181528460208386010111156118b357600080fd5b816020850160208301376000918101602001919091529392505050565b6000806000606084860312156118e557600080fd5b833567ffffffffffffffff808211156118fd57600080fd5b90850190610160828803121561191257600080fd5b909350602085013592506040850135908082111561192f57600080fd5b5061193c8682870161187f565b9150509250925092565b600082601f83011261195757600080fd5b815161196561169f82611839565b81815284602083860101111561197a57600080fd5b610c3e826020830160208701611498565b60006020828403121561199d57600080fd5b815167ffffffffffffffff8111156119b457600080fd5b610c3e84828501611946565b7f4e487b7100000000000000000000000000000000000000000000000000000000600052603260045260246000fd5b60008083357fffffffffffffffffffffffffffffffffffffffffffffffffffffffffffffffe1843603018112611a2457600080fd5b83018035915067ffffffffffffffff821115611a3f57600080fd5b6020019150368190038213156111d257600080fd5b8183823760009101908152919050565b60007fffffffffffffffffffffffffffffffffffffffffffffffffffffffffffffffff821415611abd577f4e487b7100000000000000000000000000000000000000000000000000000000600052601160045260246000fd5b5060010190565b6020808252825160408383015280516060840181905260009291820190839060808601905b80831015611b095783518252928401926001929092019190840190611ae9565b508387015160408701528094505050505092915050565b60008060408385031215611b3357600080fd5b823567ffffffffffffffff80821115611b4b57600080fd5b611b578683870161167e565b9350602091508185013581811115611b6e57600080fd5b8501601f81018713611b7f57600080fd5b8035611b8d61169f8261165a565b81815260059190911b82018401908481019089831115611bac57600080fd5b8584015b83811015611be457803586811115611bc85760008081fd5b611bd68c89838901016116e9565b845250918601918601611bb0565b508096505050505050509250929050565b600060208284031215611c0757600080fd5b5051919050565b60ff81168114610b5357600080fd5b600080600080600060a08688031215611c3557600080fd5b85358015158114611c4557600080fd5b94506020860135611c5581611c0e565b935060408601359250606086013567ffffffffffffffff80821115611c7957600080fd5b611c8589838a0161187f565b93506080880135915080821115611c9b57600080fd5b50611ca88882890161187f565b9150509295509295909350565b7f4e487b7100000000000000000000000000000000000000000000000000000000600052602160045260246000fd5b828152604060208201526000610c3e60408301846114c8565b60006020808385031215611d1057600080fd5b825167ffffffffffffffff80821115611d2857600080fd5b9084019060408287031215611d3c57600080fd5b611d446115e2565b825182811115611d5357600080fd5b83019150601f82018713611d6657600080fd5b8151611d7461169f8261165a565b81815260059190911b83018501908581019089831115611d9357600080fd5b938601935b82851015611db157845182529386019390860190611d98565b835250509183015192820192909252949350505050565b600082601f830112611dd957600080fd5b81516020611de961169f8361165a565b82815260059290921b84018101918181019086841115611e0857600080fd5b8286015b848110156116de57805167ffffffffffffffff811115611e2c5760008081fd5b611e3a8986838b0101611946565b845250918301918301611e0c565b60008060408385031215611e5b57600080fd5b825167ffffffffffffffff80821115611e7357600080fd5b818501915085601f830112611e8757600080fd5b81516020611e9761169f8361165a565b82815260059290921b84018101918181019089841115611eb657600080fd5b948201945b83861015611edd578551611ece81611c0e565b82529482019490820190611ebb565b91880151919650909350505080821115611ef657600080fd5b5061177885828601611dc856fea2646970667358221220b72f3e75488fdedb267609a67675825af643b6324f4933f73ebb8da74990638864736f6c634300080c0033","linkReferences":{},"deployedLinkReferences":{},"fileHash":"5ffba4829ec679034bed0aeea271267344267563aebc175d1132b95dead3bd42"}